S013000073696D706C655F67616D652E737265638E
S11300000C942A000C9447000C9447000C9447006D
S11300100C9447000C9447000C9447000C94470040
S11300200C9447000C9447000C9447000C94470030
S11300300C9447000C9447000C9447000C94470020
S11300400C9447000C9447000C9447000C94470010
S11300500C94470011241FBECFE5D8E0DEBFCDBF0E
S113006010E0A0E6B0E0EAECF4E002C005900D92E6
S1130070AE38B107D9F710E0AEE8B0E001C01D9288
S1130080AE38B107E1F70E941B020C9463020C9492
S113009000008A988B988C988D9882B38C6382BB6D
S11300A0BC9ABD9ABE9ABF9A0895E0E088B38F7057
S11300B088BBEE2321F488B3806E88BB0CC0E1308A
S11300C021F488B3806D88BB0BC0E23021F488B37F
S11300D0806B88BB05C0E33019F488B3806788BBA4
S11300E080B382FD09C0F0E0EE0FFF1FEE0FFF1F8B
S11300F0E05AFF4F8081089580B383FD09C0F0E08A
S1130100EE0FFF1FEE0FFF1FE05AFF4F818108958E
S113011080B384FD09C0F0E0EE0FFF1FEE0FFF1F58
S1130120E05AFF4F8281089580B385FD09C0F0E055
S1130130EE0FFF1FEE0FFF1FE05AFF4F838108955C
S11301408FE99FE00197F1F700C00000EF5FE43012
S113015009F0ACCF8FEF0895D998982F92959F709E
S113016090FF02C0DB9A01C0DB98982F9295969578
S1130170977090FF02C0DC9A01C0DC98982F92958A
S113018096959695937090FF02C0DD9A01C0DD9814
S1130190882314F4DE9A01C0DE98DA9AEFE9FFE0CE
S11301A03197F1F700C00000DA98EFE9FFE03197EA
S11301B0F1F700C0000080FF02C0DB9A01C0DB98A9
S11301C0982F969590FF02C0DC9A01C0DC98982F76
S11301D09695969590FF02C0DD9A01C0DD988695AC
S11301E08695869580FF02C0DE9A01C0DE98DA9A71
S11301F08FE99FE00197F1F700C00000DA98EFE97A
S1130200FFE03197F1F700C0000008958AB38E67CC
S11302108ABB83E00E94AC008FE79EE30197F1F76D
S113022000C0000083E00E94AC00AFE7BEE311977A
S1130230F1F700C0000083E00E94AC008FE79EE36A
S11302400197F1F700C0000082E00E94AC0088E250
S11302500E94AC0088E00E94AC0081E00E94AC00E7
S113026086E00E94AC008FEF99EFA0E081509040AF
S1130270A040E1F700C000008CE00E94AC000895AB
S1130280D99A982F92959F7090FF02C0DB9A01C073
S1130290DB98982F92959695977090FF02C0DC9A00
S11302A001C0DC98982F929596959695937090FF3F
S11302B002C0DD9A01C0DD98882314F4DE9A01C0DF
S11302C0DE98DA9AEFE9FFE03197F1F700C0000019
S11302D0DA98EFE9FFE03197F1F700C0000080FF02
S11302E002C0DB9A01C0DB98982F969590FF02C05C
S11302F0DC9A01C0DC98982F9695969590FF02C0E1
S1130300DD9A01C0DD9886958695869580FF02C0AA
S1130310DE9A01C0DE98DA9A8FE99FE00197F1F73F
S113032000C00000DA98EFE9FFE03197F1F700C070
S1130330000008950F931F93CF938C01FC018081DB
S1130340882351F0C0E00E944001CF5FF801EC0F18
S1130350F11D80818823B9F7CF911F910F910895E2
S11303608F929F92AF92BF92EF92FF921F93CF937F
S1130370DF93CDB7DEB72A970FB6F894DEBF0FBE72
S1130380CDBFDC01CB01AE014F5F5F4F2AE0FA0124
S113039011922A95E9F70097A105B10521F480E3AC
S11303A00E94400138C010E00F2EFAE08F2EF0E0DA
S11303B09F2EF0E0AF2EF0E0BF2EF02DE12EFF24B3
S11303C0E7FCF09421E030E02C0F3D1FE20EF31E19
S11303D0BC01CD01A50194010E944102605DF701B9
S11303E06083822F932FA42FB52F1F5F0097A10541
S11303F0B10521F711507AF0E12FFF27E7FDF095C1
S113040021E030E02C0F3D1FE20FF31F80810E949A
S11304104001115088F72A960FB6F894DEBF0FBE3C
S1130420CDBFDF91CF911F91FF90EF90BF90AF9020
S11304309F908F9008950E9406010E94490080E7D2
S113044090E00E949A0107E710E0C1E8D0E00E9422
S11304505500853351F481E00E94AC0083E80E948A
S1130460AC00C8010E949A01F2CF8F3F81F381E072
S11304700E94AC0083E80E94AC00CE010E949A0165
S1130480E6CFA1E21A2EAA1BBB1BFD010DC0AA1FB9
S1130490BB1FEE1FFF1FA217B307E407F50720F0E9
S11304A0A21BB30BE40BF50B661F771F881F991F64
S11304B01A9469F760957095809590959B01AC01AD
S10D04C0BD01CF010895F894FFCFA9
S11304CA2F3938372A3635342D3332312B3D3043E0
S11304DA31302F3F3D320077656C6C20646F6E6556
S11104EA0077726F6E6720616E737765720023
S9030000FC
